{
  "contractName": "decentralizedBank",
  "abi": [
    {
      "anonymous": false,
      "inputs": [
        {
          "indexed": false,
          "name": "account",
          "type": "address"
        }
      ],
      "name": "willExecuted",
      "type": "event"
    },
    {
      "anonymous": false,
      "inputs": [
        {
          "indexed": false,
          "name": "account",
          "type": "address"
        },
        {
          "indexed": false,
          "name": "nbDays",
          "type": "uint256"
        },
        {
          "indexed": false,
          "name": "heir",
          "type": "address"
        }
      ],
      "name": "accountCreated",
      "type": "event"
    },
    {
      "constant": false,
      "inputs": [
        {
          "name": "_days",
          "type": "uint256"
        },
        {
          "name": "_heir",
          "type": "address"
        }
      ],
      "name": "deposit",
      "outputs": [],
      "payable": true,
      "stateMutability": "payable",
      "type": "function"
    },
    {
      "constant": false,
      "inputs": [
        {
          "name": "_amount",
          "type": "uint256"
        },
        {
          "name": "_withdraw",
          "type": "address"
        }
      ],
      "name": "transfer",
      "outputs": [],
      "payable": false,
      "stateMutability": "nonpayable",
      "type": "function"
    },
    {
      "constant": true,
      "inputs": [],
      "name": "checkAccount",
      "outputs": [
        {
          "name": "",
          "type": "uint256"
        },
        {
          "name": "",
          "type": "uint256"
        },
        {
          "name": "",
          "type": "address"
        }
      ],
      "payable": false,
      "stateMutability": "view",
      "type": "function"
    },
    {
      "constant": false,
      "inputs": [
        {
          "name": "_account",
          "type": "address"
        }
      ],
      "name": "executeWill",
      "outputs": [],
      "payable": false,
      "stateMutability": "nonpayable",
      "type": "function"
    }
  ],
  "bytecode": "0x608060405234801561001057600080fd5b50610947806100206000396000f300608060405260043610610062576000357c0100000000000000000000000000000000000000000000000000000000900463ffffffff1680635c13a439146100675780636e553f65146100cc578063b7760c8f1461010c578063e854d13514610159575b600080fd5b34801561007357600080fd5b5061007c61019c565b604051808481526020018381526020018273ffffffffffffffffffffffffffffffffffffffff1673ffffffffffffffffffffffffffffffffffffffff168152602001935050505060405180910390f35b61010a60048036038101908080359060200190929190803573ffffffffffffffffffffffffffffffffffffffff169060200190929190505050610342565b005b34801561011857600080fd5b5061015760048036038101908080359060200190929190803573ffffffffffffffffffffffffffffffffffffffff169060200190929190505050610588565b005b34801561016557600080fd5b5061019a600480360381019080803573ffffffffffffffffffffffffffffffffffffffff1690602001909291905050506106ed565b005b600080600080600160003373ffffffffffffffffffffffffffffffffffffffff1673ffffffffffffffffffffffffffffffffffffffff1681526020019081526020016000206001015442039050600160003373ffffffffffffffffffffffffffffffffffffffff1673ffffffffffffffffffffffffffffffffffffffff1681526020019081526020016000206002015481101561028d576201518081600160003373ffffffffffffffffffffffffffffffffffffffff1673ffffffffffffffffffffffffffffffffffffffff168152602001908152602001600020600201540381151561028557fe5b049050610292565b600090505b600260003373ffffffffffffffffffffffffffffffffffffffff1673ffffffffffffffffffffffffffffffffffffffff1681526020019081526020016000205481600160003373ffffffffffffffffffffffffffffffffffffffff1673ffffffffffffffffffffffffffffffffffffffff16815260200190815260200160002060000160009054906101000a900473ffffffffffffffffffffffffffffffffffffffff1693509350935050909192565b42600160003373ffffffffffffffffffffffffffffffffffffffff1673ffffffffffffffffffffffffffffffffffffffff1681526020019081526020016000206001018190555034600260003373ffffffffffffffffffffffffffffffffffffffff1673ffffffffffffffffffffffffffffffffffffffff1681526020019081526020016000205401600260003373ffffffffffffffffffffffffffffffffffffffff1673ffffffffffffffffffffffffffffffffffffffff1681526020019081526020016000208190555060008211156104e557620151808202600160003373ffffffffffffffffffffffffffffffffffffffff1673ffffffffffffffffffffffffffffffffffffffff1681526020019081526020016000206002018190555080600160003373ffffffffffffffffffffffffffffffffffffffff1673ffffffffffffffffffffffffffffffffffffffff16815260200190815260200160002060000160006101000a81548173ffffffffffffffffffffffffffffffffffffffff021916908373ffffffffffffffffffffffffffffffffffffffff1602179055505b7f73fc7b5ae677e299e5cc80fa5ca65712a3353ec6f7ce729fee4d2ff4ce1785c4338383604051808473ffffffffffffffffffffffffffffffffffffffff1673ffffffffffffffffffffffffffffffffffffffff1681526020018381526020018273ffffffffffffffffffffffffffffffffffffffff1673ffffffffffffffffffffffffffffffffffffffff168152602001935050505060405180910390a15050565b42600160003373ffffffffffffffffffffffffffffffffffffffff1673ffffffffffffffffffffffffffffffffffffffff1681526020019081526020016000206001018190555081600260003373ffffffffffffffffffffffffffffffffffffffff1673ffffffffffffffffffffffffffffffffffffffff168152602001908152602001600020541015151561061d57600080fd5b81600260003373ffffffffffffffffffffffffffffffffffffffff1673ffffffffffffffffffffffffffffffffffffffff1681526020019081526020016000205403600260003373ffffffffffffffffffffffffffffffffffffffff1673ffffffffffffffffffffffffffffffffffffffff168152602001908152602001600020819055508073ffffffffffffffffffffffffffffffffffffffff166108fc839081150290604051600060405180830381858888f193505050501580156106e8573d6000803e3d6000fd5b505050565b6000600160008373ffffffffffffffffffffffffffffffffffffffff1673ffffffffffffffffffffffffffffffffffffffff16815260200190815260200160002060020154600160008473ffffffffffffffffffffffffffffffffffffffff1673ffffffffffffffffffffffffffffffffffffffff1681526020019081526020016000206001015401421015151561078457600080fd5b600260008373ffffffffffffffffffffffffffffffffffffffff1673ffffffffffffffffffffffffffffffffffffffff1681526020019081526020016000205490506000600260008473ffffffffffffffffffffffffffffffffffffffff1673ffffffffffffffffffffffffffffffffffffffff16815260200190815260200160002081905550600160008373ffffffffffffffffffffffffffffffffffffffff1673ffffffffffffffffffffffffffffffffffffffff16815260200190815260200160002060000160009054906101000a900473ffffffffffffffffffffffffffffffffffffffff1673ffffffffffffffffffffffffffffffffffffffff166108fc829081150290604051600060405180830381858888f193505050501580156108b3573d6000803e3d6000fd5b507f8110d6318a0a1aecb637c0774cacf52999be442f6d14ca7f4d08ffb09c918f0c82604051808273ffffffffffffffffffffffffffffffffffffffff1673ffffffffffffffffffffffffffffffffffffffff16815260200191505060405180910390a150505600a165627a7a7230582056c65818d8db8892b4422141e86f0fef3369f9cab21e249d43277e24702d937a0029",
  "source": "pragma solidity ^0.4.18;\n\n//The aim of decentralized_bank contract is to provide your wallet the ultimate backup in case of non-activity for a period of time.\ncontract decentralizedBank {\n\t\n\t//Event writes on log file to enable alert to listeners\n\tevent willExecuted(address account);\n\tevent accountCreated(address account, uint nbDays, address heir);\n\n\tuint totalSupply;\n\t\n\tstruct account {\n      address heir;\n      uint lastAction;\n      uint nbDays;\n    }\n\t\n\t//Mapping is a dictionary, relating (A => B)\n\tmapping (address => account) addressToAccount;\n\tmapping (address => uint) balanceOf;\n\t\t\n\tfunction deposit (uint _days, address _heir) public payable {\n\t\taddressToAccount[msg.sender].lastAction = now;\n\t\tbalanceOf[msg.sender] = balanceOf[msg.sender] + msg.value;\n\t\tif (_days > 0) {\n\t\t\taddressToAccount[msg.sender].nbDays = _days * 1 days;\n\t\t\taddressToAccount[msg.sender].heir = _heir;\n\t\t}\n\t\t//Call Event to inform Listeners of the creation/update of the savings account\n\t\taccountCreated(msg.sender, _days, _heir);\n\t}\n\t\n\t//Only owner of the contract can withdraw funds to any address he desires;\n\tfunction transfer (uint _amount, address _withdraw) public {\n\t\taddressToAccount[msg.sender].lastAction = now;\n\t\trequire(balanceOf[msg.sender] >= _amount);\n\t\tbalanceOf[msg.sender] = balanceOf[msg.sender] - _amount;\n\t\t_withdraw.transfer(_amount);\n\t}\n\t\n\tfunction checkAccount () external view returns(uint, uint, address) {\n\t\tuint _remainingDays = now - addressToAccount[msg.sender].lastAction;\n\t\tif (_remainingDays < addressToAccount[msg.sender].nbDays) {\n\t\t\t_remainingDays = (addressToAccount[msg.sender].nbDays - _remainingDays) / (1 days);\n\t\t} else {\n\t\t\t_remainingDays = 0;\n\t\t}\n\t\treturn (balanceOf[msg.sender], _remainingDays, addressToAccount[msg.sender].heir);\n\t}\n\n\t//Any person can reclaim the execution of the will if time has passed\n\tfunction executeWill (address _account) public {\n\t\trequire(now >= addressToAccount[_account].lastAction + addressToAccount[_account].nbDays);\n\t\tuint _amount = balanceOf[_account];\n\t\tbalanceOf[_account] = 0;\n\t\taddressToAccount[_account].heir.transfer(_amount);\n\t\t//Call Event to inform Listeners of the Will Execution\n\t\twillExecuted(_account);\n\t}\n\n}",
  "sourcePath": "/Users/josepereira/Documents/Decentralized_Bank/contracts/decentralizedBank.sol",
  "compiler": {
    "name": "solc",
    "version": "0.4.23+commit.124ca40d.Emscripten.clang"
  },
  "schemaVersion": "2.0.0",
  "updatedAt": "2018-04-20T11:14:52.572Z"
}