{
  "contractName": "decentralizedBank",
  "abi": [
    {
      "anonymous": false,
      "inputs": [
        {
          "indexed": false,
          "name": "account",
          "type": "address"
        }
      ],
      "name": "willExecuted",
      "type": "event"
    },
    {
      "anonymous": false,
      "inputs": [
        {
          "indexed": false,
          "name": "account",
          "type": "address"
        },
        {
          "indexed": false,
          "name": "nbDays",
          "type": "uint256"
        },
        {
          "indexed": false,
          "name": "heir",
          "type": "address"
        }
      ],
      "name": "accountCreated",
      "type": "event"
    },
    {
      "constant": false,
      "inputs": [
        {
          "name": "_days",
          "type": "uint256"
        },
        {
          "name": "_heir",
          "type": "address"
        }
      ],
      "name": "deposit",
      "outputs": [],
      "payable": true,
      "stateMutability": "payable",
      "type": "function"
    },
    {
      "constant": false,
      "inputs": [
        {
          "name": "_amount",
          "type": "uint256"
        },
        {
          "name": "_withdraw",
          "type": "address"
        }
      ],
      "name": "transfer",
      "outputs": [],
      "payable": false,
      "stateMutability": "nonpayable",
      "type": "function"
    },
    {
      "constant": true,
      "inputs": [],
      "name": "checkAccount",
      "outputs": [
        {
          "name": "",
          "type": "uint256"
        },
        {
          "name": "",
          "type": "uint256"
        },
        {
          "name": "",
          "type": "address"
        }
      ],
      "payable": false,
      "stateMutability": "view",
      "type": "function"
    },
    {
      "constant": false,
      "inputs": [
        {
          "name": "_account",
          "type": "address"
        }
      ],
      "name": "executeWill",
      "outputs": [],
      "payable": false,
      "stateMutability": "nonpayable",
      "type": "function"
    }
  ],
  "bytecode": "0x6060604052341561000f57600080fd5b6109198061001e6000396000f300606060405260043610610062576000357c0100000000000000000000000000000000000000000000000000000000900463ffffffff1680635c13a439146100675780636e553f65146100ca578063b7760c8f14610101578063e854d13514610143575b600080fd5b341561007257600080fd5b61007a61017c565b604051808481526020018381526020018273ffffffffffffffffffffffffffffffffffffffff1673ffffffffffffffffffffffffffffffffffffffff168152602001935050505060405180910390f35b6100ff600480803590602001909190803573ffffffffffffffffffffffffffffffffffffffff16906020019091905050610322565b005b341561010c57600080fd5b610141600480803590602001909190803573ffffffffffffffffffffffffffffffffffffffff16906020019091905050610568565b005b341561014e57600080fd5b61017a600480803573ffffffffffffffffffffffffffffffffffffffff169060200190919050506106c6565b005b600080600080600160003373ffffffffffffffffffffffffffffffffffffffff1673ffffffffffffffffffffffffffffffffffffffff1681526020019081526020016000206001015442039050600160003373ffffffffffffffffffffffffffffffffffffffff1673ffffffffffffffffffffffffffffffffffffffff1681526020019081526020016000206002015481101561026d576201518081600160003373ffffffffffffffffffffffffffffffffffffffff1673ffffffffffffffffffffffffffffffffffffffff168152602001908152602001600020600201540381151561026557fe5b049050610272565b600090505b600260003373ffffffffffffffffffffffffffffffffffffffff1673ffffffffffffffffffffffffffffffffffffffff1681526020019081526020016000205481600160003373ffffffffffffffffffffffffffffffffffffffff1673ffffffffffffffffffffffffffffffffffffffff16815260200190815260200160002060000160009054906101000a900473ffffffffffffffffffffffffffffffffffffffff1693509350935050909192565b42600160003373ffffffffffffffffffffffffffffffffffffffff1673ffffffffffffffffffffffffffffffffffffffff1681526020019081526020016000206001018190555034600260003373ffffffffffffffffffffffffffffffffffffffff1673ffffffffffffffffffffffffffffffffffffffff1681526020019081526020016000205401600260003373ffffffffffffffffffffffffffffffffffffffff1673ffffffffffffffffffffffffffffffffffffffff1681526020019081526020016000208190555060008211156104c557620151808202600160003373ffffffffffffffffffffffffffffffffffffffff1673ffffffffffffffffffffffffffffffffffffffff1681526020019081526020016000206002018190555080600160003373ffffffffffffffffffffffffffffffffffffffff1673ffffffffffffffffffffffffffffffffffffffff16815260200190815260200160002060000160006101000a81548173ffffffffffffffffffffffffffffffffffffffff021916908373ffffffffffffffffffffffffffffffffffffffff1602179055505b7f73fc7b5ae677e299e5cc80fa5ca65712a3353ec6f7ce729fee4d2ff4ce1785c4338383604051808473ffffffffffffffffffffffffffffffffffffffff1673ffffffffffffffffffffffffffffffffffffffff1681526020018381526020018273ffffffffffffffffffffffffffffffffffffffff1673ffffffffffffffffffffffffffffffffffffffff168152602001935050505060405180910390a15050565b42600160003373ffffffffffffffffffffffffffffffffffffffff1673ffffffffffffffffffffffffffffffffffffffff1681526020019081526020016000206001018190555081600260003373ffffffffffffffffffffffffffffffffffffffff1673ffffffffffffffffffffffffffffffffffffffff16815260200190815260200160002054101515156105fd57600080fd5b81600260003373ffffffffffffffffffffffffffffffffffffffff1673ffffffffffffffffffffffffffffffffffffffff1681526020019081526020016000205403600260003373ffffffffffffffffffffffffffffffffffffffff1673ffffffffffffffffffffffffffffffffffffffff168152602001908152602001600020819055508073ffffffffffffffffffffffffffffffffffffffff166108fc839081150290604051600060405180830381858888f1935050505015156106c257600080fd5b5050565b6000600160008373ffffffffffffffffffffffffffffffffffffffff1673ffffffffffffffffffffffffffffffffffffffff16815260200190815260200160002060020154600160008473ffffffffffffffffffffffffffffffffffffffff1673ffffffffffffffffffffffffffffffffffffffff1681526020019081526020016000206001015401421015151561075d57600080fd5b600260008373ffffffffffffffffffffffffffffffffffffffff1673ffffffffffffffffffffffffffffffffffffffff1681526020019081526020016000205490506000600260008473ffffffffffffffffffffffffffffffffffffffff1673ffffffffffffffffffffffffffffffffffffffff16815260200190815260200160002081905550600160008373ffffffffffffffffffffffffffffffffffffffff1673ffffffffffffffffffffffffffffffffffffffff16815260200190815260200160002060000160009054906101000a900473ffffffffffffffffffffffffffffffffffffffff1673ffffffffffffffffffffffffffffffffffffffff166108fc829081150290604051600060405180830381858888f19350505050151561088657600080fd5b7f8110d6318a0a1aecb637c0774cacf52999be442f6d14ca7f4d08ffb09c918f0c82604051808273ffffffffffffffffffffffffffffffffffffffff1673ffffffffffffffffffffffffffffffffffffffff16815260200191505060405180910390a150505600a165627a7a723058202df96851924bdc0cd677c239ca3aa8b45616918ea855a2b42f3e567734ec93a40029",
  "source": "pragma solidity ^0.4.19;\n\n//The aim of decentralized_bank contract is to provide your wallet the ultimate backup in case of non-activity for a period of time.\ncontract decentralizedBank {\n\t\n\t//Event writes on log file to enable alert to listeners\n\tevent willExecuted(address account);\n\tevent accountCreated(address account, uint nbDays, address heir);\n\n\tuint totalSupply;\n\t\n\tstruct account {\n      address heir;\n      uint lastAction;\n      uint nbDays;\n    }\n\t\n\t//Mapping is a dictionary, relating (A => B)\n\tmapping (address => account) addressToAccount;\n\tmapping (address => uint) balanceOf;\n\t\n\tfunction deposit (uint _days, address _heir) public payable {\n\t\taddressToAccount[msg.sender].lastAction = now;\n\t\tbalanceOf[msg.sender] = balanceOf[msg.sender] + msg.value;\n\t\tif (_days > 0) {\n\t\t\taddressToAccount[msg.sender].nbDays = _days * 1 days;\n\t\t\taddressToAccount[msg.sender].heir = _heir;\n\t\t}\n\t\t//Call Event to inform Listeners of the creation/update of the savings account\n\t\taccountCreated(msg.sender, _days, _heir);\n\t}\n\t\n\t//Only owner of the contract can withdraw funds to any address he desires;\n\tfunction transfer (uint _amount, address _withdraw) public {\n\t\taddressToAccount[msg.sender].lastAction = now;\n\t\trequire(balanceOf[msg.sender] >= _amount);\n\t\tbalanceOf[msg.sender] = balanceOf[msg.sender] - _amount;\n\t\t_withdraw.transfer(_amount);\n\t}\n\t\n\tfunction checkAccount () external view returns(uint, uint, address) {\n\t\tuint _remainingDays = now - addressToAccount[msg.sender].lastAction;\n\t\tif (_remainingDays < addressToAccount[msg.sender].nbDays) {\n\t\t\t_remainingDays = (addressToAccount[msg.sender].nbDays - _remainingDays) / (1 days);\n\t\t} else {\n\t\t\t_remainingDays = 0;\n\t\t}\n\t\treturn (balanceOf[msg.sender], _remainingDays, addressToAccount[msg.sender].heir);\n\t}\n\n\t//Any person can reclaim the execution of the will if time has passed\n\tfunction executeWill (address _account) public {\n\t\trequire(now >= addressToAccount[_account].lastAction + addressToAccount[_account].nbDays);\n\t\tuint _amount = balanceOf[_account];\n\t\tbalanceOf[_account] = 0;\n\t\taddressToAccount[_account].heir.transfer(_amount);\n\t\t//Call Event to inform Listeners of the Will Execution\n\t\twillExecuted(_account);\n\t}\n\n}",
  "sourcePath": "C:\\Users\\oem\\Dropbox\\My_Files\\solidity\\Decentralized_Bank\\contracts\\decentralizedBank.sol",
  "compiler": {
    "name": "solc",
    "version": "0.4.19+commit.c4cbbb05.Emscripten.clang"
  },
  "schemaVersion": "1.0.1",
  "updatedAt": "2018-02-07T20:01:47.314Z"
}